{
  "transactions": [
    {
      "hash": "0xffb096b6c14dcd07e6791bdce21a79d3e5907e1e6cc54fab2111a57ec3b56cc0",
      "transactionType": "CALL",
      "contractName": null,
      "contractAddress": "0x324c2dee3aa3b38a3fc79313f0b0315582277204",
      "function": "updateCallbackProxy(address)",
      "arguments": [
        "0xFCA0157a303d2134854d9cF4718901B6515b0696"
      ],
      "transaction": {
        "from": "0xfca0157a303d2134854d9cf4718901b6515b0696",
        "to": "0x324c2dee3aa3b38a3fc79313f0b0315582277204",
        "gas": "0xa697",
        "value": "0x0",
        "input": "0x5109b48b000000000000000000000000fca0157a303d2134854d9cf4718901b6515b0696",
        "nonce": "0x1b1",
        "chainId": "0x14a34"
      },
      "additionalContracts": [],
      "isFixedGasLimit": false
    },
    {
      "hash": "0x7f6409e24ee2512191b0f505932d0968a594356e748dfe13b88a4698df126208",
      "transactionType": "CALL",
      "contractName": null,
      "contractAddress": "0x324c2dee3aa3b38a3fc79313f0b0315582277204",
      "function": "updateRoundData(uint80,int256,uint256,uint256,uint80)",
      "arguments": [
        "2",
        "301256710100",
        "1764261804",
        "1764261804",
        "2"
      ],
      "transaction": {
        "from": "0xfca0157a303d2134854d9cf4718901b6515b0696",
        "to": "0x324c2dee3aa3b38a3fc79313f0b0315582277204",
        "gas": "0x31c9c",
        "value": "0x0",
        "input": "0xb0fe3ea1000000000000000000000000000000000000000000000000000000000000000200000000000000000000000000000000000000000000000000000046244c97d40000000000000000000000000000000000000000000000000000000069287fac0000000000000000000000000000000000000000000000000000000069287fac0000000000000000000000000000000000000000000000000000000000000002",
        "nonce": "0x1b2",
        "chainId": "0x14a34"
      },
      "additionalContracts": [],
      "isFixedGasLimit": false
    },
    {
      "hash": "0x6b73602013f980ae00e8bb2b5f6566aa141c610a2b4768125e754f7df101bce7",
      "transactionType": "CALL",
      "contractName": null,
      "contractAddress": "0x324c2dee3aa3b38a3fc79313f0b0315582277204",
      "function": "updateCallbackProxy(address)",
      "arguments": [
        "0xbCce91031005f78ad7De9A9B837fbaae9234C641"
      ],
      "transaction": {
        "from": "0xfca0157a303d2134854d9cf4718901b6515b0696",
        "to": "0x324c2dee3aa3b38a3fc79313f0b0315582277204",
        "gas": "0xa697",
        "value": "0x0",
        "input": "0x5109b48b000000000000000000000000bcce91031005f78ad7de9a9b837fbaae9234c641",
        "nonce": "0x1b3",
        "chainId": "0x14a34"
      },
      "additionalContracts": [],
      "isFixedGasLimit": false
    }
  ],
  "receipts": [
    {
      "status": "0x1",
      "cumulativeGasUsed": "0x532467",
      "logs": [],
      "logsBloom": "0x00000000000000000000000000000000000000000000000000000000000000000000000000000000000000000000000000000000000000000000000000000000000000000000000000000000000000000000000000000000000000000000000000000000000000000000000000000000000000000000000000000000000000000000000000000000000000000000000000000000000000000000000000000000000000000000000000000000000000000000000000000000000000000000000000000000000000000000000000000000000000000000000000000000000000000000000000000000000000000000000000000000000000000000000000000000",
      "type": "0x0",
      "transactionHash": "0xffb096b6c14dcd07e6791bdce21a79d3e5907e1e6cc54fab2111a57ec3b56cc0",
      "transactionIndex": "0x12",
      "blockHash": "0x766a0baf231f6b07ac5a08d5b46aab6325a8482414f1e2255ea9787d3fcf09d6",
      "blockNumber": "0x20a906d",
      "gasUsed": "0x71e9",
      "effectiveGasPrice": "0x127d45",
      "blobGasUsed": "0x79e0",
      "from": "0xfca0157a303d2134854d9cf4718901b6515b0696",
      "to": "0x324c2dee3aa3b38a3fc79313f0b0315582277204",
      "contractAddress": null,
      "daFootprintGasScalar": "0x138",
      "l1BaseFeeScalar": "0x44d",
      "l1BlobBaseFee": "0x1",
      "l1BlobBaseFeeScalar": "0xa118b",
      "l1Fee": "0x55",
      "l1GasPrice": "0xb",
      "l1GasUsed": "0x640"
    },
    {
      "status": "0x1",
      "cumulativeGasUsed": "0x556523",
      "logs": [
        {
          "address": "0x324c2dee3aa3b38a3fc79313f0b0315582277204",
          "topics": [
            "0x9e88aaf4afa8b6738ee3821d781af8cf45ac58e32ccf5bb88cc2c84bd128f92e",
            "0x0000000000000000000000000000000000000000000000000000000000000002",
            "0x000000000000000000000000fca0157a303d2134854d9cf4718901b6515b0696"
          ],
          "data": "0x00000000000000000000000000000000000000000000000000000046244c97d40000000000000000000000000000000000000000000000000000000069287fac",
          "blockHash": "0x426f27cf733ab8f53113019064ae32b8e1ea3fb2332c1345c5c7c6b49eb80934",
          "blockNumber": "0x20a906d",
          "blockTimestamp": "0x69287fba",
          "transactionHash": "0x7f6409e24ee2512191b0f505932d0968a594356e748dfe13b88a4698df126208",
          "transactionIndex": "0x13",
          "logIndex": "0xa0",
          "removed": false
        }
      ],
      "logsBloom": "0x04000000000000000000000000000000000000000000000000008000000000000000000000000000000000000000000000000000000000000022000000000000000200000000000000000000400000000000000000000000000000000000000000000000000000000000000000000000000000000000000000000000000000000000000000000000000000008000000000000000000000000000000000000000000000000000000000000100000000000000000000000000000000000000000000000000000000000000000000000000000000000000000000000000000000020000000000000000000000000000001000008000008000000000000000000000",
      "type": "0x0",
      "transactionHash": "0x7f6409e24ee2512191b0f505932d0968a594356e748dfe13b88a4698df126208",
      "transactionIndex": "0x13",
      "blockHash": "0x426f27cf733ab8f53113019064ae32b8e1ea3fb2332c1345c5c7c6b49eb80934",
      "blockNumber": "0x20a906d",
      "gasUsed": "0x240bc",
      "effectiveGasPrice": "0x127d45",
      "blobGasUsed": "0x79e0",
      "from": "0xfca0157a303d2134854d9cf4718901b6515b0696",
      "to": "0x324c2dee3aa3b38a3fc79313f0b0315582277204",
      "contractAddress": null,
      "daFootprintGasScalar": "0x138",
      "l1BaseFeeScalar": "0x44d",
      "l1BlobBaseFee": "0x1",
      "l1BlobBaseFeeScalar": "0xa118b",
      "l1Fee": "0x55",
      "l1GasPrice": "0xb",
      "l1GasUsed": "0x640"
    },
    {
      "status": "0x1",
      "cumulativeGasUsed": "0x55d70c",
      "logs": [],
      "logsBloom": "0x00000000000000000000000000000000000000000000000000000000000000000000000000000000000000000000000000000000000000000000000000000000000000000000000000000000000000000000000000000000000000000000000000000000000000000000000000000000000000000000000000000000000000000000000000000000000000000000000000000000000000000000000000000000000000000000000000000000000000000000000000000000000000000000000000000000000000000000000000000000000000000000000000000000000000000000000000000000000000000000000000000000000000000000000000000000",
      "type": "0x0",
      "transactionHash": "0x6b73602013f980ae00e8bb2b5f6566aa141c610a2b4768125e754f7df101bce7",
      "transactionIndex": "0x14",
      "blockHash": "0x426f27cf733ab8f53113019064ae32b8e1ea3fb2332c1345c5c7c6b49eb80934",
      "blockNumber": "0x20a906d",
      "gasUsed": "0x71e9",
      "effectiveGasPrice": "0x127d45",
      "blobGasUsed": "0x79e0",
      "from": "0xfca0157a303d2134854d9cf4718901b6515b0696",
      "to": "0x324c2dee3aa3b38a3fc79313f0b0315582277204",
      "contractAddress": null,
      "daFootprintGasScalar": "0x138",
      "l1BaseFeeScalar": "0x44d",
      "l1BlobBaseFee": "0x1",
      "l1BlobBaseFeeScalar": "0xa118b",
      "l1Fee": "0x55",
      "l1GasPrice": "0xb",
      "l1GasUsed": "0x640"
    }
  ],
  "libraries": [],
  "pending": [],
  "returns": {},
  "timestamp": 1764261818,
  "chain": 84532,
  "commit": "d82cf8d"
}